{
  "contractName": "Sample",
  "abi": [
    {
      "constant": true,
      "inputs": [],
      "name": "stateBool",
      "outputs": [
        {
          "name": "",
          "type": "bool"
        }
      ],
      "payable": false,
      "stateMutability": "view",
      "type": "function"
    },
    {
      "constant": true,
      "inputs": [],
      "name": "stateInt",
      "outputs": [
        {
          "name": "",
          "type": "uint256"
        }
      ],
      "payable": false,
      "stateMutability": "view",
      "type": "function"
    },
    {
      "constant": true,
      "inputs": [],
      "name": "counter",
      "outputs": [
        {
          "name": "",
          "type": "uint256"
        }
      ],
      "payable": false,
      "stateMutability": "view",
      "type": "function"
    },
    {
      "inputs": [],
      "payable": false,
      "stateMutability": "nonpayable",
      "type": "constructor"
    },
    {
      "constant": false,
      "inputs": [
        {
          "name": "_stateInt",
          "type": "uint256"
        },
        {
          "name": "_stateBool",
          "type": "bool"
        }
      ],
      "name": "setStateVar",
      "outputs": [],
      "payable": false,
      "stateMutability": "nonpayable",
      "type": "function"
    },
    {
      "constant": false,
      "inputs": [
        {
          "name": "_stateInt",
          "type": "uint256"
        },
        {
          "name": "_stateBool",
          "type": "bool"
        }
      ],
      "name": "setStateVarGasFail",
      "outputs": [],
      "payable": false,
      "stateMutability": "nonpayable",
      "type": "function"
    },
    {
      "constant": false,
      "inputs": [
        {
          "name": "_stateInt",
          "type": "uint256"
        },
        {
          "name": "_stateBool",
          "type": "bool"
        }
      ],
      "name": "setStateVarRevert",
      "outputs": [],
      "payable": false,
      "stateMutability": "nonpayable",
      "type": "function"
    },
    {
      "constant": false,
      "inputs": [],
      "name": "incrementCounter",
      "outputs": [],
      "payable": false,
      "stateMutability": "nonpayable",
      "type": "function"
    }
  ],
  "bytecode": "0x608060405234801561001057600080fd5b5060016000819055506000600160006101000a81548160ff021916908315150217905550610413806100436000396000f3fe608060405234801561001057600080fd5b506004361061007d5760003560e01c80635b34b9661161005b5780635b34b966146100da57806361bc221a146100e4578063724aeb39146101025780639c43ba381461011e5761007d565b806304deee4014610082578063136cace9146100a05780631e8b9d11146100bc575b600080fd5b61008a61013a565b604051610097919061032e565b60405180910390f35b6100ba60048036036100b59190810190610294565b61014d565b005b6100c4610172565b6040516100d19190610369565b60405180910390f35b6100e2610178565b005b6100ec61018c565b6040516100f99190610369565b60405180910390f35b61011c60048036036101179190810190610294565b610192565b005b61013860048036036101339190810190610294565b6101f8565b005b600160009054906101000a900460ff1681565b8160008190555080600160006101000a81548160ff0219169083151502179055505050565b60005481565b600260008154809291906001019190505550565b60025481565b8160008190555080600160006101000a81548160ff02191690831515021790555060006101f4576040517f08c379a00000000000000000000000000000000000000000000000000000000081526004016101eb90610349565b60405180910390fd5b5050565b8160008190555080600160006101000a81548160ff02191690831515021790555060008090505b620f4240811015610265578060008190555060006002828161023d57fe5b0614600160006101000a81548160ff021916908315150217905550808060010191505061021f565b505050565b600081359050610279816103ab565b92915050565b60008135905061028e816103c2565b92915050565b600080604083850312156102a757600080fd5b60006102b58582860161027f565b92505060206102c68582860161026a565b9150509250929050565b6102d981610395565b82525050565b60006102ec601283610384565b91507f4661696c656420696e206574682063616c6c00000000000000000000000000006000830152602082019050919050565b610328816103a1565b82525050565b600060208201905061034360008301846102d0565b92915050565b60006020820190508181036000830152610362816102df565b9050919050565b600060208201905061037e600083018461031f565b92915050565b600082825260208201905092915050565b60008115159050919050565b6000819050919050565b6103b481610395565b81146103bf57600080fd5b50565b6103cb816103a1565b81146103d657600080fd5b5056fea265627a7a72305820c7bf02f3985bb627c6eacf4cb27dbf5c9720589a30b8f127a675465311f5b2456c6578706572696d656e74616cf50037",
  "source": "pragma solidity ^0.5.0;\npragma experimental ABIEncoderV2;\n\ncontract Sample {\n    uint public stateInt;\n    bool public stateBool;\n    uint public counter;\n\n    constructor() public {\n        stateInt = 1;\n        stateBool = false;\n    }\n\n    function setStateVar(uint _stateInt, bool _stateBool) public {\n        stateInt = _stateInt;\n        stateBool = _stateBool;\n    }\n\n    // Used in unit tests to simulate graceful deploy and compute receipt handling of callbacks that fail due to\n    // out of gas errors. This function contains a very large loop, that eventually fails due to out of gas.\n    function setStateVarGasFail(uint _stateInt, bool _stateBool) public {\n        stateInt = _stateInt;\n        stateBool = _stateBool;\n        for (uint i = 0; i < 1000000; i++) {\n            stateInt = i;\n            stateBool = (i % 2 == 0);\n        }\n    }\n\n    function setStateVarRevert(uint _stateInt, bool _stateBool) public {\n        stateInt = _stateInt;\n        stateBool = _stateBool;\n        require(false, \"Failed in eth call\");\n    }\n\n    function incrementCounter() public {\n        counter++;\n    }\n}\n",
  "sourcePath": "/home/sabine/git/hackathon/3nable/3nable/smart_contracts/Sample.sol",
  "compiler": {
    "name": "solc",
    "version": "0.5.8+commit.23d335f2.Emscripten.clang"
  },
  "schemaVersion": "3.0.15",
  "updatedAt": "2019-09-08T13:26:37.887Z",
  "devdoc": {
    "methods": {}
  },
  "userdoc": {
    "methods": {}
  }
}